{
  "contractName": "Counter",
  "abi": [
    {
      "inputs": [],
      "name": "increment",
      "outputs": [],
      "stateMutability": "nonpayable",
      "type": "function"
    },
    {
      "inputs": [],
      "name": "decrement",
      "outputs": [],
      "stateMutability": "nonpayable",
      "type": "function"
    },
    {
      "inputs": [],
      "name": "reset",
      "outputs": [],
      "stateMutability": "nonpayable",
      "type": "function"
    },
    {
      "inputs": [],
      "name": "getCount",
      "outputs": [
        {
          "internalType": "int256",
          "name": "",
          "type": "int256"
        }
      ],
      "stateMutability": "view",
      "type": "function"
    }
  ],
  "bytecode": "0x60806040526000805534801561001457600080fd5b50610170806100246000396000f3fe608060405234801561001057600080fd5b506004361061004c5760003560e01c80632baeceb714610051578063a87d942c1461005b578063d09de08a14610079578063d826f88f14610083575b600080fd5b61005961008d565b005b610063610116565b6040518082815260200191505060405180910390f35b61008161011f565b005b61008b610131565b005b6000805413610104576040517f08c379a00000000000000000000000000000000000000000000000000000000081526004018080602001828103825260198152602001807f436f756e7465722063616e277420676f2062656c6f7720302e0000000000000081525060200191505060405180910390fd5b60016000808282540392505081905550565b60008054905090565b60016000808282540192505081905550565b6000808190555056fea2646970667358221220537f35bd7e5394fe1ccb2c3c715ca7a8977498b2f568dd1cbc5f5e0ffafa02c064736f6c63430007010033",
  "immutableReferences": {},
  "source": "pragma solidity >=0.4.22 <0.8.0;\n\ncontract Counter {\n    int private count = 0;\n    \n    function increment() public {\n        count += 1;\n    }\n\n    function decrement() public {\n        require(count > 0, \"Counter can't go below 0.\");\n        count -= 1;\n    }\n\n    function reset() public {\n        count = 0;\n    }\n\n    function getCount() public view returns (int) {\n        return count;\n    }\n}\n",
  "sourcePath": "/workspace/ethereum/truffle-project/contracts/Counter.sol",
  "compiler": {
    "name": "solc",
    "version": "0.7.1+commit.f4a555be.Emscripten.clang"
  },
  "schemaVersion": "3.4.9",
  "updatedAt": "2022-09-08T01:29:18.397Z",
  "devdoc": {
    "kind": "dev",
    "methods": {},
    "version": 1
  },
  "userdoc": {
    "kind": "user",
    "methods": {},
    "version": 1
  }
}