{
  "contractName": "RecordsCrud",
  "abi": [
    {
      "anonymous": false,
      "inputs": [
        {
          "indexed": true,
          "internalType": "address",
          "name": "recordAddress",
          "type": "address"
        },
        {
          "indexed": false,
          "internalType": "uint256",
          "name": "index",
          "type": "uint256"
        }
      ],
      "name": "LogDeleteRecord",
      "type": "event"
    },
    {
      "anonymous": false,
      "inputs": [
        {
          "indexed": true,
          "internalType": "address",
          "name": "recordAddress",
          "type": "address"
        },
        {
          "indexed": false,
          "internalType": "uint256",
          "name": "index",
          "type": "uint256"
        },
        {
          "indexed": false,
          "internalType": "uint256",
          "name": "timestamp",
          "type": "uint256"
        },
        {
          "indexed": false,
          "internalType": "bytes",
          "name": "data",
          "type": "bytes"
        }
      ],
      "name": "LogNewRecord",
      "type": "event"
    },
    {
      "anonymous": false,
      "inputs": [
        {
          "indexed": true,
          "internalType": "address",
          "name": "recordAddress",
          "type": "address"
        },
        {
          "indexed": false,
          "internalType": "uint256",
          "name": "index",
          "type": "uint256"
        },
        {
          "indexed": false,
          "internalType": "uint256",
          "name": "timestamp",
          "type": "uint256"
        },
        {
          "indexed": false,
          "internalType": "bytes",
          "name": "data",
          "type": "bytes"
        }
      ],
      "name": "LogUpdateRecord",
      "type": "event"
    },
    {
      "inputs": [
        {
          "internalType": "address",
          "name": "recordAddress",
          "type": "address"
        }
      ],
      "name": "isRecord",
      "outputs": [
        {
          "internalType": "bool",
          "name": "isIndeed",
          "type": "bool"
        }
      ],
      "stateMutability": "view",
      "type": "function",
      "constant": true
    },
    {
      "inputs": [
        {
          "internalType": "address",
          "name": "recordAddress",
          "type": "address"
        },
        {
          "internalType": "uint256",
          "name": "timestamp",
          "type": "uint256"
        },
        {
          "internalType": "bytes",
          "name": "data",
          "type": "bytes"
        }
      ],
      "name": "insertRecord",
      "outputs": [
        {
          "internalType": "uint256",
          "name": "index",
          "type": "uint256"
        }
      ],
      "stateMutability": "nonpayable",
      "type": "function"
    },
    {
      "inputs": [
        {
          "internalType": "address",
          "name": "recordAddress",
          "type": "address"
        }
      ],
      "name": "deleteRecord",
      "outputs": [
        {
          "internalType": "uint256",
          "name": "index",
          "type": "uint256"
        }
      ],
      "stateMutability": "nonpayable",
      "type": "function"
    },
    {
      "inputs": [
        {
          "internalType": "address",
          "name": "recordAddress",
          "type": "address"
        }
      ],
      "name": "getRecord",
      "outputs": [
        {
          "internalType": "uint256",
          "name": "index",
          "type": "uint256"
        },
        {
          "internalType": "uint256",
          "name": "timestamp",
          "type": "uint256"
        },
        {
          "internalType": "bytes",
          "name": "data",
          "type": "bytes"
        }
      ],
      "stateMutability": "view",
      "type": "function",
      "constant": true
    },
    {
      "inputs": [
        {
          "internalType": "address",
          "name": "recordAddress",
          "type": "address"
        },
        {
          "internalType": "uint256",
          "name": "timestamp",
          "type": "uint256"
        },
        {
          "internalType": "bytes",
          "name": "data",
          "type": "bytes"
        }
      ],
      "name": "updateRecord",
      "outputs": [
        {
          "internalType": "bool",
          "name": "success",
          "type": "bool"
        }
      ],
      "stateMutability": "nonpayable",
      "type": "function"
    },
    {
      "inputs": [],
      "name": "getRecordCount",
      "outputs": [
        {
          "internalType": "uint256",
          "name": "count",
          "type": "uint256"
        }
      ],
      "stateMutability": "view",
      "type": "function",
      "constant": true
    },
    {
      "inputs": [
        {
          "internalType": "uint256",
          "name": "index",
          "type": "uint256"
        }
      ],
      "name": "getRecordAtIndex",
      "outputs": [
        {
          "internalType": "address",
          "name": "recordAddress",
          "type": "address"
        }
      ],
      "stateMutability": "view",
      "type": "function",
      "constant": true
    }
  ],
  "bytecode": "0x608060405234801561001057600080fd5b506110ae806100206000396000f3fe608060405234801561001057600080fd5b506004361061007d5760003560e01c80637bcd7fad1161005b5780637bcd7fad1461029e5780638ccd7a2b146102f6578063afe161c7146103f1578063ca267f281461044b5761007d565b80630d1f34711461008257806317cd602e146100da578063617fba04146101d3575b600080fd5b6100c46004803603602081101561009857600080fd5b81019080803573ffffffffffffffffffffffffffffffffffffffff169060200190929190505050610469565b6040518082815260200191505060405180910390f35b6101bd600480360360608110156100f057600080fd5b81019080803573ffffffffffffffffffffffffffffffffffffffff169060200190929190803590602001909291908035906020019064010000000081111561013757600080fd5b82018360208201111561014957600080fd5b8035906020019184600183028401116401000000008311171561016b57600080fd5b91908080601f016020809104026020016040519081016040528093929190818152602001838380828437600081840152601f19601f8201169050808301925050505050505091929192905050506107e6565b6040518082815260200191505060405180910390f35b610215600480360360208110156101e957600080fd5b81019080803573ffffffffffffffffffffffffffffffffffffffff169060200190929190505050610aa8565b6040518084815260200183815260200180602001828103825283818151815260200191508051906020019080838360005b83811015610261578082015181840152602081019050610246565b50505050905090810190601f16801561028e5780820380516001836020036101000a031916815260200191505b5094505050505060405180910390f35b6102ca600480360360208110156102b457600080fd5b8101908080359060200190929190505050610c79565b604051808273ffffffffffffffffffffffffffffffffffffffff16815260200191505060405180910390f35b6103d96004803603606081101561030c57600080fd5b81019080803573ffffffffffffffffffffffffffffffffffffffff169060200190929190803590602001909291908035906020019064010000000081111561035357600080fd5b82018360208201111561036557600080fd5b8035906020019184600183028401116401000000008311171561038757600080fd5b91908080601f016020809104026020016040519081016040528093929190818152602001838380828437600081840152601f19601f820116905080830192505050505050509192919290505050610cba565b60405180821515815260200191505060405180910390f35b6104336004803603602081101561040757600080fd5b81019080803573ffffffffffffffffffffffffffffffffffffffff169060200190929190505050610ec5565b60405180821515815260200191505060405180910390f35b610453610f8c565b6040518082815260200191505060405180910390f35b600061047482610ec5565b6104c9576040517f08c379a00000000000000000000000000000000000000000000000000000000081526004018080602001828103825260218152602001806110376021913960400191505060405180910390fd5b60008060008473ffffffffffffffffffffffffffffffffffffffff1673ffffffffffffffffffffffffffffffffffffffff16815260200190815260200160002060000154905060006001808080549050038154811061052457fe5b9060005260206000200160009054906101000a900473ffffffffffffffffffffffffffffffffffffffff169050806001838154811061055f57fe5b9060005260206000200160006101000a81548173ffffffffffffffffffffffffffffffffffffffff021916908373ffffffffffffffffffffffffffffffffffffffff160217905550816000808373ffffffffffffffffffffffffffffffffffffffff1673ffffffffffffffffffffffffffffffffffffffff1681526020019081526020016000206000018190555060018054806105f857fe5b6001900381819060005260206000200160006101000a81549073ffffffffffffffffffffffffffffffffffffffff021916905590558373ffffffffffffffffffffffffffffffffffffffff167fa10cd6fb8072a934a527e9376505fb087098d902152677d362a73993ebc1414d836040518082815260200191505060405180910390a28073ffffffffffffffffffffffffffffffffffffffff167f4415fb04b19fac7aab1883223162890d0eae55563b623236e83ec1821297e095836000808573ffffffffffffffffffffffffffffffffffffffff1673ffffffffffffffffffffffffffffffffffffffff168152602001908152602001600020600101546000808673ffffffffffffffffffffffffffffffffffffffff1673ffffffffffffffffffffffffffffffffffffffff16815260200190815260200160002060020160405180848152602001838152602001806020018281038252838181546001816001161561010002031660029004815260200191508054600181600116156101000203166002900480156107cc5780601f106107a1576101008083540402835291602001916107cc565b820191906000526020600020905b8154815290600101906020018083116107af57829003601f168201915b505094505050505060405180910390a28192505050919050565b60006107f184610ec5565b15610847576040517f08c379a00000000000000000000000000000000000000000000000000000000081526004018080602001828103825260218152602001806110586021913960400191505060405180910390fd5b6001849080600181540180825580915050600190039060005260206000200160009091909190916101000a81548173ffffffffffffffffffffffffffffffffffffffff021916908373ffffffffffffffffffffffffffffffffffffffff16021790555060018080549050036000808673ffffffffffffffffffffffffffffffffffffffff1673ffffffffffffffffffffffffffffffffffffffff16815260200190815260200160002060000181905550826000808673ffffffffffffffffffffffffffffffffffffffff1673ffffffffffffffffffffffffffffffffffffffff16815260200190815260200160002060010181905550816000808673ffffffffffffffffffffffffffffffffffffffff1673ffffffffffffffffffffffffffffffffffffffff1681526020019081526020016000206002019080519060200190610992929190610f99565b508373ffffffffffffffffffffffffffffffffffffffff167fe88e942158477d4f12fc5bbbea7a941d572a04cc1a2b32fc50c016baa076ddbd6000808773ffffffffffffffffffffffffffffffffffffffff1673ffffffffffffffffffffffffffffffffffffffff1681526020019081526020016000206000015485856040518084815260200183815260200180602001828103825283818151815260200191508051906020019080838360005b83811015610a5b578082015181840152602081019050610a40565b50505050905090810190601f168015610a885780820380516001836020036101000a031916815260200191505b5094505050505060405180910390a2600180805490500390509392505050565b6000806060610ab684610ec5565b610b0b576040517f08c379a00000000000000000000000000000000000000000000000000000000081526004018080602001828103825260218152602001806110376021913960400191505060405180910390fd5b6000808573ffffffffffffffffffffffffffffffffffffffff1673ffffffffffffffffffffffffffffffffffffffff168152602001908152602001600020600001546000808673ffffffffffffffffffffffffffffffffffffffff1673ffffffffffffffffffffffffffffffffffffffff168152602001908152602001600020600101546000808773ffffffffffffffffffffffffffffffffffffffff1673ffffffffffffffffffffffffffffffffffffffff168152602001908152602001600020600201808054600181600116156101000203166002900480601f016020809104026020016040519081016040528092919081815260200182805460018160011615610100020316600290048015610c655780601f10610c3a57610100808354040283529160200191610c65565b820191906000526020600020905b815481529060010190602001808311610c4857829003601f168201915b505050505090509250925092509193909250565b600060018281548110610c8857fe5b9060005260206000200160009054906101000a900473ffffffffffffffffffffffffffffffffffffffff169050919050565b6000610cc584610ec5565b610d1a576040517f08c379a00000000000000000000000000000000000000000000000000000000081526004018080602001828103825260218152602001806110376021913960400191505060405180910390fd5b826000808673ffffffffffffffffffffffffffffffffffffffff1673ffffffffffffffffffffffffffffffffffffffff16815260200190815260200160002060010181905550816000808673ffffffffffffffffffffffffffffffffffffffff1673ffffffffffffffffffffffffffffffffffffffff1681526020019081526020016000206002019080519060200190610db5929190610f99565b508373ffffffffffffffffffffffffffffffffffffffff167f4415fb04b19fac7aab1883223162890d0eae55563b623236e83ec1821297e0956000808773ffffffffffffffffffffffffffffffffffffffff1673ffffffffffffffffffffffffffffffffffffffff1681526020019081526020016000206000015485856040518084815260200183815260200180602001828103825283818151815260200191508051906020019080838360005b83811015610e7e578082015181840152602081019050610e63565b50505050905090810190601f168015610eab5780820380516001836020036101000a031916815260200191505b5094505050505060405180910390a2600190509392505050565b6000806001805490501415610edd5760009050610f87565b8173ffffffffffffffffffffffffffffffffffffffff1660016000808573ffffffffffffffffffffffffffffffffffffffff1673ffffffffffffffffffffffffffffffffffffffff1681526020019081526020016000206000015481548110610f4257fe5b9060005260206000200160009054906101000a900473ffffffffffffffffffffffffffffffffffffffff1673ffffffffffffffffffffffffffffffffffffffff161490505b919050565b6000600180549050905090565b828054600181600116156101000203166002900490600052602060002090601f016020900481019282601f10610fda57805160ff1916838001178555611008565b82800160010185558215611008579182015b82811115611007578251825591602001919060010190610fec565b5b5090506110159190611019565b5090565b5b8082111561103257600081600090555060010161101a565b509056fe53657420646f6573206e6f7420636f6e7461696e2074686973207265636f72642e53657420616c726561647920636f6e7461696e732074686973207265636f72642ea26469706673582212204a8211640a1e26fe90ce502defd7c7bfc43dba5936bc34e3455847696eb4fab864736f6c63430007010033",
  "immutableReferences": {},
  "source": "pragma solidity >=0.4.22 <0.8.0;\n\n// SolidityCRUD is a generalized pattern for storing table-like records in an Ethereum blockchain.\n// Developed by Rob Hitchens and published at https://bitbucket.org/rhitchens2/soliditycrud/src/master/\n// This contract adapts this pattern to CRUD arbitrary byte data records.\n\ncontract RecordsCrud {\n\n    struct RecordStruct {\n        uint index;\n        uint timestamp;\n        bytes data;\n    }\n\n    mapping(address => RecordStruct) private recordStructs;\n\n    address[] private recordIndex;\n\n    event LogNewRecord(\n        address indexed recordAddress,\n        uint index,\n        uint timestamp,\n        bytes data);\n\n    event LogUpdateRecord(\n        address indexed recordAddress,\n        uint index,\n        uint timestamp,\n        bytes data);\n\n    event LogDeleteRecord(\n        address indexed recordAddress,\n        uint index);\n\n    function isRecord(address recordAddress)\n    public\n    view\n    returns(bool isIndeed)\n    {\n        if(recordIndex.length == 0) {\n            return false;\n        }\n\n        return (recordIndex[recordStructs[recordAddress].index] == recordAddress);\n    }\n\n    function insertRecord(address recordAddress, uint timestamp, bytes memory data)\n    public\n    returns(uint index)\n    {\n        require(!isRecord(recordAddress), \"Set already contains this record.\");\n        recordIndex.push(recordAddress);\n        recordStructs[recordAddress].index = recordIndex.length - 1;\n        recordStructs[recordAddress].timestamp = timestamp;\n        recordStructs[recordAddress].data = data;\n\n        emit LogNewRecord(\n            recordAddress,\n            recordStructs[recordAddress].index,\n            timestamp,\n            data);\n\n        return recordIndex.length-1;\n    }\n\n    function deleteRecord(address recordAddress)\n    public\n    returns(uint index)\n    {\n        require(isRecord(recordAddress), \"Set does not contain this record.\");\n        uint rowToDelete = recordStructs[recordAddress].index;\n        address keyToMove = recordIndex[recordIndex.length-1];\n        recordIndex[rowToDelete] = keyToMove;\n        recordStructs[keyToMove].index = rowToDelete;\n        recordIndex.pop();\n\n        emit LogDeleteRecord(\n            recordAddress,\n            rowToDelete);\n\n        emit LogUpdateRecord(\n            keyToMove,\n            rowToDelete,\n            recordStructs[keyToMove].timestamp,\n            recordStructs[keyToMove].data);\n\n        return rowToDelete;\n    }\n\n    function getRecord(address recordAddress)\n    public\n    view\n    returns(uint index, uint timestamp, bytes memory data)\n    {\n        require(isRecord(recordAddress), \"Set does not contain this record.\");\n\n        return(\n        recordStructs[recordAddress].index,\n        recordStructs[recordAddress].timestamp,\n        recordStructs[recordAddress].data);\n    }\n\n    function updateRecord(address recordAddress, uint timestamp, bytes memory data)\n    public\n    returns(bool success)\n    {\n        require(isRecord(recordAddress), \"Set does not contain this record.\");\n        recordStructs[recordAddress].timestamp = timestamp;\n        recordStructs[recordAddress].data = data;\n\n        emit LogUpdateRecord(\n            recordAddress,\n            recordStructs[recordAddress].index,\n            timestamp,\n            data);\n\n        return true;\n    }\n\n    function getRecordCount()\n    public\n    view\n    returns(uint count)\n    {\n        return recordIndex.length;\n    }\n\n    function getRecordAtIndex(uint index)\n    public\n    view\n    returns(address recordAddress)\n    {\n        return recordIndex[index];\n    }\n}",
  "sourcePath": "/workspace/ethereum/truffle-project/contracts/RecordsCrud.sol",
  "compiler": {
    "name": "solc",
    "version": "0.7.1+commit.f4a555be.Emscripten.clang"
  },
  "schemaVersion": "3.4.9",
  "updatedAt": "2022-09-08T01:50:23.943Z",
  "networkType": "ethereum",
  "devdoc": {
    "kind": "dev",
    "methods": {},
    "version": 1
  },
  "userdoc": {
    "kind": "user",
    "methods": {},
    "version": 1
  }
}