{
  "contractName": "SimpleStore",
  "abi": [
    {
      "inputs": [],
      "name": "publicBool",
      "outputs": [
        {
          "internalType": "bool",
          "name": "",
          "type": "bool"
        }
      ],
      "stateMutability": "view",
      "type": "function"
    },
    {
      "inputs": [
        {
          "internalType": "bool",
          "name": "value",
          "type": "bool"
        }
      ],
      "name": "setMyBool",
      "outputs": [],
      "stateMutability": "nonpayable",
      "type": "function"
    },
    {
      "inputs": [],
      "name": "getMyBool",
      "outputs": [
        {
          "internalType": "bool",
          "name": "value",
          "type": "bool"
        }
      ],
      "stateMutability": "view",
      "type": "function"
    },
    {
      "inputs": [
        {
          "internalType": "int256",
          "name": "value",
          "type": "int256"
        }
      ],
      "name": "setMyInt",
      "outputs": [],
      "stateMutability": "nonpayable",
      "type": "function"
    },
    {
      "inputs": [],
      "name": "getMyInt",
      "outputs": [
        {
          "internalType": "int256",
          "name": "value",
          "type": "int256"
        }
      ],
      "stateMutability": "view",
      "type": "function"
    },
    {
      "inputs": [
        {
          "internalType": "uint256",
          "name": "value",
          "type": "uint256"
        }
      ],
      "name": "setMyUint",
      "outputs": [],
      "stateMutability": "nonpayable",
      "type": "function"
    },
    {
      "inputs": [],
      "name": "getMyUint",
      "outputs": [
        {
          "internalType": "uint256",
          "name": "value",
          "type": "uint256"
        }
      ],
      "stateMutability": "view",
      "type": "function"
    },
    {
      "inputs": [
        {
          "internalType": "enum SimpleStore.MyEnum",
          "name": "value",
          "type": "uint8"
        }
      ],
      "name": "setMyEnum",
      "outputs": [],
      "stateMutability": "nonpayable",
      "type": "function"
    },
    {
      "inputs": [],
      "name": "getMyEnum",
      "outputs": [
        {
          "internalType": "enum SimpleStore.MyEnum",
          "name": "value",
          "type": "uint8"
        }
      ],
      "stateMutability": "view",
      "type": "function"
    },
    {
      "inputs": [
        {
          "internalType": "address",
          "name": "value",
          "type": "address"
        }
      ],
      "name": "setMyAddress",
      "outputs": [],
      "stateMutability": "nonpayable",
      "type": "function"
    },
    {
      "inputs": [],
      "name": "getMyAddress",
      "outputs": [
        {
          "internalType": "address",
          "name": "value",
          "type": "address"
        }
      ],
      "stateMutability": "view",
      "type": "function"
    },
    {
      "inputs": [
        {
          "internalType": "bytes32",
          "name": "value",
          "type": "bytes32"
        }
      ],
      "name": "setMyBytes32",
      "outputs": [],
      "stateMutability": "nonpayable",
      "type": "function"
    },
    {
      "inputs": [],
      "name": "getMyBytes32",
      "outputs": [
        {
          "internalType": "bytes32",
          "name": "value",
          "type": "bytes32"
        }
      ],
      "stateMutability": "view",
      "type": "function"
    },
    {
      "inputs": [
        {
          "internalType": "bytes",
          "name": "value",
          "type": "bytes"
        }
      ],
      "name": "setMyBytes",
      "outputs": [],
      "stateMutability": "nonpayable",
      "type": "function"
    },
    {
      "inputs": [],
      "name": "getMyBytes",
      "outputs": [
        {
          "internalType": "bytes",
          "name": "value",
          "type": "bytes"
        }
      ],
      "stateMutability": "view",
      "type": "function"
    },
    {
      "inputs": [
        {
          "internalType": "string",
          "name": "value",
          "type": "string"
        }
      ],
      "name": "setMyString",
      "outputs": [],
      "stateMutability": "nonpayable",
      "type": "function"
    },
    {
      "inputs": [],
      "name": "getMyString",
      "outputs": [
        {
          "internalType": "string",
          "name": "value",
          "type": "string"
        }
      ],
      "stateMutability": "view",
      "type": "function"
    },
    {
      "inputs": [
        {
          "internalType": "int256[5]",
          "name": "value",
          "type": "int256[5]"
        }
      ],
      "name": "setFixedIntArray",
      "outputs": [],
      "stateMutability": "nonpayable",
      "type": "function"
    },
    {
      "inputs": [],
      "name": "getFixedIntArray",
      "outputs": [
        {
          "internalType": "int256[5]",
          "name": "value",
          "type": "int256[5]"
        }
      ],
      "stateMutability": "view",
      "type": "function"
    },
    {
      "inputs": [
        {
          "internalType": "int256[]",
          "name": "value",
          "type": "int256[]"
        }
      ],
      "name": "setDynamicIntArray",
      "outputs": [],
      "stateMutability": "nonpayable",
      "type": "function"
    },
    {
      "inputs": [],
      "name": "getDynamicIntArray",
      "outputs": [
        {
          "internalType": "int256[]",
          "name": "value",
          "type": "int256[]"
        }
      ],
      "stateMutability": "view",
      "type": "function"
    },
    {
      "inputs": [
        {
          "internalType": "contract Counter",
          "name": "counter",
          "type": "address"
        }
      ],
      "name": "setMyCounter",
      "outputs": [],
      "stateMutability": "nonpayable",
      "type": "function"
    },
    {
      "inputs": [],
      "name": "getMyCounter",
      "outputs": [
        {
          "internalType": "contract Counter",
          "name": "counter",
          "type": "address"
        }
      ],
      "stateMutability": "view",
      "type": "function"
    },
    {
      "inputs": [
        {
          "internalType": "bool",
          "name": "boolValue",
          "type": "bool"
        },
        {
          "internalType": "int256",
          "name": "intValue",
          "type": "int256"
        },
        {
          "internalType": "string",
          "name": "stringValue",
          "type": "string"
        }
      ],
      "name": "setMultipleVariables",
      "outputs": [],
      "stateMutability": "nonpayable",
      "type": "function"
    },
    {
      "inputs": [],
      "name": "getMultipleVariables",
      "outputs": [
        {
          "internalType": "bool",
          "name": "boolValue",
          "type": "bool"
        },
        {
          "internalType": "int256",
          "name": "intValue",
          "type": "int256"
        },
        {
          "internalType": "string",
          "name": "stringValue",
          "type": "string"
        }
      ],
      "stateMutability": "view",
      "type": "function"
    }
  ],
  "bytecode": "0x608060405234801561001057600080fd5b506110b8806100206000396000f3fe608060405234801561001057600080fd5b50600436106101735760003560e01c806382180568116100de578063be4fc32211610097578063d8dc26f511610071578063d8dc26f5146108ae578063de5633ed14610931578063e492fd841461095a578063eb1b30d91461098857610173565b8063be4fc322146107b8578063c96e9722146107d6578063d547554e146107f657610173565b806382180568146105eb578063916d5743146106a65780639a166299146106da5780639b9d1e2b1461070e578063a8a7b8951461072e578063b9b1165a1461077257610173565b80635a152c36116101305780635a152c36146103f65780635f65932c1461045b5780635f6633bf1461048957806362aac060146104b757806379f214051461054a5780637e7b8a961461056857610173565b80630c4139b714610178578063157ada66146101a95780631c880ed11461027a5780633895f1e9146102be578063392aee471461031d5780635907432d1461033b575b600080fd5b6101a76004803603602081101561018e57600080fd5b81019080803560ff1690602001909291905050506109b8565b005b610278600480360360608110156101bf57600080fd5b8101908080351515906020019092919080359060200190929190803590602001906401000000008111156101f257600080fd5b82018360208201111561020457600080fd5b8035906020019184600183028401116401000000008311171561022657600080fd5b91908080601f016020809104026020016040519081016040528093929190818152602001838380828437600081840152601f19601f8201169050808301925050505050505091929192905050506109de565b005b6102bc6004803603602081101561029057600080fd5b81019080803573ffffffffffffffffffffffffffffffffffffffff169060200190929190505050610a1b565b005b6102c6610a5f565b6040518080602001828103825283818151815260200191508051906020019060200280838360005b838110156103095780820151818401526020810190506102ee565b505050509050019250505060405180910390f35b610325610ab7565b6040518082815260200191505060405180910390f35b6103f46004803603602081101561035157600080fd5b810190808035906020019064010000000081111561036e57600080fd5b82018360208201111561038057600080fd5b803590602001918460018302840111640100000000831117156103a257600080fd5b91908080601f016020809104026020016040519081016040528093929190818152602001838380828437600081840152601f19601f820116905080830192505050505050509192919290505050610ac1565b005b610459600480360360a081101561040c57600080fd5b810190808060a001906005806020026040519081016040528092919082600560200280828437600081840152601f19601f8201169050808301925050505050509192919290505050610adb565b005b6104876004803603602081101561047157600080fd5b8101908080359060200190929190505050610af0565b005b6104b56004803603602081101561049f57600080fd5b8101908080359060200190929190505050610afa565b005b6104bf610b04565b60405180841515815260200183815260200180602001828103825283818151815260200191508051906020019080838360005b8381101561050d5780820151818401526020810190506104f2565b50505050905090810190601f16801561053a5780820380516001836020036101000a031916815260200191505b5094505050505060405180910390f35b610552610bc5565b6040518082815260200191505060405180910390f35b610570610bcf565b6040518080602001828103825283818151815260200191508051906020019080838360005b838110156105b0578082015181840152602081019050610595565b50505050905090810190601f1680156105dd5780820380516001836020036101000a031916815260200191505b509250505060405180910390f35b6106a46004803603602081101561060157600080fd5b810190808035906020019064010000000081111561061e57600080fd5b82018360208201111561063057600080fd5b8035906020019184600183028401116401000000008311171561065257600080fd5b91908080601f016020809104026020016040519081016040528093929190818152602001838380828437600081840152601f19601f820116905080830192505050505050509192919290505050610c71565b005b6106ae610c8b565b604051808273ffffffffffffffffffffffffffffffffffffffff16815260200191505060405180910390f35b6106e2610cb5565b604051808273ffffffffffffffffffffffffffffffffffffffff16815260200191505060405180910390f35b610716610cdf565b60405180821515815260200191505060405180910390f35b6107706004803603602081101561074457600080fd5b81019080803573ffffffffffffffffffffffffffffffffffffffff169060200190929190505050610cf0565b005b61077a610d34565b6040518082600560200280838360005b838110156107a557808201518184015260208101905061078a565b5050505090500191505060405180910390f35b6107c0610d7f565b6040518082815260200191505060405180910390f35b6107de610d89565b60405180821515815260200191505060405180910390f35b6108ac6004803603602081101561080c57600080fd5b810190808035906020019064010000000081111561082957600080fd5b82018360208201111561083b57600080fd5b8035906020019184602083028401116401000000008311171561085d57600080fd5b919080806020026020016040519081016040528093929190818152602001838360200280828437600081840152601f19601f820116905080830192505050505050509192919290505050610d9f565b005b6108b6610db9565b6040518080602001828103825283818151815260200191508051906020019080838360005b838110156108f65780820151818401526020810190506108db565b50505050905090810190601f1680156109235780820380516001836020036101000a031916815260200191505b509250505060405180910390f35b610939610e5b565b6040518082600281111561094957fe5b815260200191505060405180910390f35b6109866004803603602081101561097057600080fd5b8101908080359060200190929190505050610e72565b005b6109b66004803603602081101561099e57600080fd5b81019080803515159060200190929190505050610e7c565b005b80600360006101000a81548160ff021916908360028111156109d657fe5b021790555050565b82600d60146101000a81548160ff02191690831515021790555081600e8190555080600f9080519060200190610a15929190610e99565b50505050565b80600d60006101000a81548173ffffffffffffffffffffffffffffffffffffffff021916908373ffffffffffffffffffffffffffffffffffffffff16021790555050565b6060600c805480602002602001604051908101604052809291908181526020018280548015610aad57602002820191906000526020600020905b815481526020019060010190808311610a99575b5050505050905090565b6000600254905090565b8060059080519060200190610ad7929190610f19565b5050565b806007906005610aec929190610f99565b5050565b8060048190555050565b8060018190555050565b6000806060600d60149054906101000a900460ff16600e54600f808054600181600116156101000203166002900480601f016020809104026020016040519081016040528092919081815260200182805460018160011615610100020316600290048015610bb35780601f10610b8857610100808354040283529160200191610bb3565b820191906000526020600020905b815481529060010190602001808311610b9657829003601f168201915b50505050509050925092509250909192565b6000600154905090565b606060068054600181600116156101000203166002900480601f016020809104026020016040519081016040528092919081815260200182805460018160011615610100020316600290048015610c675780601f10610c3c57610100808354040283529160200191610c67565b820191906000526020600020905b815481529060010190602001808311610c4a57829003601f168201915b5050505050905090565b8060069080519060200190610c87929190610e99565b5050565b6000600d60009054906101000a900473ffffffffffffffffffffffffffffffffffffffff16905090565b6000600360019054906101000a900473ffffffffffffffffffffffffffffffffffffffff16905090565b60008054906101000a900460ff1681565b80600360016101000a81548173ffffffffffffffffffffffffffffffffffffffff021916908373ffffffffffffffffffffffffffffffffffffffff16021790555050565b610d3c610fd9565b6007600580602002604051908101604052809291908260058015610d75576020028201915b815481526020019060010190808311610d61575b5050505050905090565b6000600454905090565b60008060019054906101000a900460ff16905090565b80600c9080519060200190610db5929190610ffb565b5050565b606060058054600181600116156101000203166002900480601f016020809104026020016040519081016040528092919081815260200182805460018160011615610100020316600290048015610e515780601f10610e2657610100808354040283529160200191610e51565b820191906000526020600020905b815481529060010190602001808311610e3457829003601f168201915b5050505050905090565b6000600360009054906101000a900460ff16905090565b8060028190555050565b80600060016101000a81548160ff02191690831515021790555050565b828054600181600116156101000203166002900490600052602060002090601f016020900481019282601f10610eda57805160ff1916838001178555610f08565b82800160010185558215610f08579182015b82811115610f07578251825591602001919060010190610eec565b5b509050610f159190611048565b5090565b828054600181600116156101000203166002900490600052602060002090601f016020900481019282601f10610f5a57805160ff1916838001178555610f88565b82800160010185558215610f88579182015b82811115610f87578251825591602001919060010190610f6c565b5b509050610f959190611048565b5090565b8260058101928215610fc8579160200282015b82811115610fc7578251825591602001919060010190610fac565b5b509050610fd59190611065565b5090565b6040518060a00160405280600590602082028036833780820191505090505090565b828054828255906000526020600020908101928215611037579160200282015b8281111561103657825182559160200191906001019061101b565b5b5090506110449190611065565b5090565b5b80821115611061576000816000905550600101611049565b5090565b5b8082111561107e576000816000905550600101611066565b509056fea26469706673582212207f5c580a3483337e9389d6b45cc68c4258dcb8f64bc0ce3f8a03ddc06c3a63bf64736f6c63430007010033",
  "immutableReferences": {},
  "source": "pragma solidity >=0.4.22 <0.8.0;\n\nimport \"./Counter.sol\";\n\ncontract SimpleStore {\n\n    // Public state variable\n    bool public publicBool;\n\n    // bool\n    bool private myBool;\n\n    function setMyBool(bool value) public\n    {\n        myBool = value;\n    }\n\n    function getMyBool() public view returns(bool value)\n    {\n        return myBool;\n    }\n\n    // int\n    int private myInt;\n\n    function setMyInt(int value) public\n    {\n        myInt = value;\n    }\n\n    function getMyInt() public view returns(int value)\n    {\n        return myInt;\n    }\n\n    // uint\n    uint private myUint;\n\n    function setMyUint(uint value) public\n    {\n        myUint = value;\n    }\n\n    function getMyUint() public view returns(uint value)\n    {\n        return myUint;\n    }\n\n    // enum\n    enum MyEnum{ FIRST, SECOND, THIRD }\n\n    MyEnum private myEnum;\n\n    function setMyEnum(MyEnum value) public\n    {\n        myEnum = value;\n    }\n\n    function getMyEnum() public view returns(MyEnum value)\n    {\n        return myEnum;\n    }\n\n    // address\n    address private myAddress;\n\n    function setMyAddress(address value) public\n    {\n        myAddress = value;\n    }\n\n    function getMyAddress() public view returns(address value)\n    {\n        return myAddress;\n    }\n\n    // bytes32 (fixed size byte array)\n    bytes32 private myBytes32;\n\n    function setMyBytes32(bytes32 value) public\n    {\n        myBytes32 = value;\n    }\n\n    function getMyBytes32() public view returns(bytes32 value)\n    {\n        return myBytes32;\n    }\n\n    // bytes (dynamic size byte array)\n    bytes private myBytes;\n\n    function setMyBytes(bytes memory value) public\n    {\n        myBytes = value;\n    }\n\n    function getMyBytes() public view returns(bytes memory value)\n    {\n        return myBytes;\n    }\n\n    // string (dynamic size byte array)\n    string private myString;\n\n    function setMyString(string memory value) public\n    {\n        myString = value;\n    }\n\n    function getMyString() public view returns(string memory value)\n    {\n        return myString;\n    }\n\n    // fixed size int array\n    int[5] private fixedIntArray;\n\n    function setFixedIntArray(int[5] memory value) public\n    {\n        fixedIntArray = value;\n    }\n\n    function getFixedIntArray() public view returns(int[5] memory value)\n    {\n        return fixedIntArray;\n    }\n\n    // dynamic size int array\n    int[] private dynamicIntArray;\n\n    function setDynamicIntArray(int[] memory value) public\n    {\n        dynamicIntArray = value;\n    }\n\n    function getDynamicIntArray() public view returns(int[] memory value)\n    {\n        return dynamicIntArray;\n    }\n\n    // Contract\n    Counter private myCounter;\n\n    function setMyCounter(Counter counter) public\n    {\n        myCounter = counter;\n    }\n\n    function getMyCounter() public view returns(Counter counter)\n    {\n        return myCounter;\n    }\n\n    // Multiple variables\n    bool private boolPart;\n    int private intPart;\n    string private stringPart;\n\n    function setMultipleVariables(bool boolValue, int intValue, string memory stringValue) public\n    {\n        boolPart = boolValue;\n        intPart = intValue;\n        stringPart = stringValue;\n    }\n\n    function getMultipleVariables() public view returns(bool boolValue, int intValue, string memory stringValue)\n    {\n        return (boolPart, intPart, stringPart);\n    }\n}\n",
  "sourcePath": "/workspace/ethereum/truffle-project/contracts/SimpleStore.sol",
  "compiler": {
    "name": "solc",
    "version": "0.7.1+commit.f4a555be.Emscripten.clang"
  },
  "schemaVersion": "3.4.9",
  "updatedAt": "2022-09-08T01:29:18.403Z",
  "devdoc": {
    "kind": "dev",
    "methods": {},
    "version": 1
  },
  "userdoc": {
    "kind": "user",
    "methods": {},
    "version": 1
  }
}